{
  "_format": "hh-sol-artifact-1",
  "contractName": "StudentManagement",
  "sourceName": "contracts/StudentManagement.sol",
  "abi": [
    {
      "anonymous": false,
      "inputs": [
        {
          "indexed": false,
          "internalType": "uint256",
          "name": "id",
          "type": "uint256"
        },
        {
          "indexed": false,
          "internalType": "string",
          "name": "name",
          "type": "string"
        },
        {
          "indexed": false,
          "internalType": "uint256",
          "name": "age",
          "type": "uint256"
        },
        {
          "indexed": false,
          "internalType": "string",
          "name": "course",
          "type": "string"
        }
      ],
      "name": "StudentAdded",
      "type": "event"
    },
    {
      "anonymous": false,
      "inputs": [
        {
          "indexed": false,
          "internalType": "uint256",
          "name": "id",
          "type": "uint256"
        }
      ],
      "name": "StudentDeleted",
      "type": "event"
    },
    {
      "anonymous": false,
      "inputs": [
        {
          "indexed": false,
          "internalType": "uint256",
          "name": "id",
          "type": "uint256"
        },
        {
          "indexed": false,
          "internalType": "string",
          "name": "name",
          "type": "string"
        },
        {
          "indexed": false,
          "internalType": "uint256",
          "name": "age",
          "type": "uint256"
        },
        {
          "indexed": false,
          "internalType": "string",
          "name": "course",
          "type": "string"
        }
      ],
      "name": "StudentUpdated",
      "type": "event"
    },
    {
      "inputs": [
        {
          "internalType": "string",
          "name": "_name",
          "type": "string"
        },
        {
          "internalType": "uint256",
          "name": "_age",
          "type": "uint256"
        },
        {
          "internalType": "string",
          "name": "_course",
          "type": "string"
        }
      ],
      "name": "addStudent",
      "outputs": [],
      "stateMutability": "nonpayable",
      "type": "function"
    },
    {
      "inputs": [
        {
          "internalType": "uint256",
          "name": "_id",
          "type": "uint256"
        }
      ],
      "name": "deleteStudent",
      "outputs": [],
      "stateMutability": "nonpayable",
      "type": "function"
    },
    {
      "inputs": [
        {
          "internalType": "uint256",
          "name": "_id",
          "type": "uint256"
        }
      ],
      "name": "getStudent",
      "outputs": [
        {
          "internalType": "uint256",
          "name": "",
          "type": "uint256"
        },
        {
          "internalType": "string",
          "name": "",
          "type": "string"
        },
        {
          "internalType": "uint256",
          "name": "",
          "type": "uint256"
        },
        {
          "internalType": "string",
          "name": "",
          "type": "string"
        }
      ],
      "stateMutability": "view",
      "type": "function"
    },
    {
      "inputs": [
        {
          "internalType": "uint256",
          "name": "_id",
          "type": "uint256"
        },
        {
          "internalType": "string",
          "name": "_name",
          "type": "string"
        },
        {
          "internalType": "uint256",
          "name": "_age",
          "type": "uint256"
        },
        {
          "internalType": "string",
          "name": "_course",
          "type": "string"
        }
      ],
      "name": "updateStudent",
      "outputs": [],
      "stateMutability": "nonpayable",
      "type": "function"
    }
  ],
  "bytecode": "0x608060405260018055348015601357600080fd5b50610e49806100236000396000f3fe608060405234801561001057600080fd5b506004361061004c5760003560e01c8063642f916314610051578063b645307d14610084578063c11e15e4146100a0578063ed32a8a1146100bc575b600080fd5b61006b600480360381019061006691906106b9565b6100d8565b60405161007b9493929190610785565b60405180910390f35b61009e600480360381019061009991906106b9565b6102da565b005b6100ba60048036038101906100b5919061090d565b6103cf565b005b6100d660048036038101906100d191906109ac565b610513565b005b600060606000606060008086815260200190815260200160002060040160009054906101000a900460ff16610142576040517f08c379a000000000000000000000000000000000000000000000000000000000815260040161013990610a83565b60405180910390fd5b60008060008781526020019081526020016000206040518060a00160405290816000820154815260200160018201805461017b90610ad2565b80601f01602080910402602001604051908101604052809291908181526020018280546101a790610ad2565b80156101f45780601f106101c9576101008083540402835291602001916101f4565b820191906000526020600020905b8154815290600101906020018083116101d757829003601f168201915b505050505081526020016002820154815260200160038201805461021790610ad2565b80601f016020809104026020016040519081016040528092919081815260200182805461024390610ad2565b80156102905780601f1061026557610100808354040283529160200191610290565b820191906000526020600020905b81548152906001019060200180831161027357829003601f168201915b505050505081526020016004820160009054906101000a900460ff161515151581525050905080600001518160200151826040015183606001519450945094509450509193509193565b60008082815260200190815260200160002060040160009054906101000a900460ff1661033c576040517f08c379a000000000000000000000000000000000000000000000000000000000815260040161033390610a83565b60405180910390fd5b6000808281526020019081526020016000206000808201600090556001820160006103679190610612565b600282016000905560038201600061037f9190610612565b6004820160006101000a81549060ff021916905550507f34de6b871245ed0a89b82912e8e5ee6d9c3104b3e5bb1d67a71ad7e68239e41c816040516103c49190610b03565b60405180910390a150565b60008085815260200190815260200160002060040160009054906101000a900460ff16610431576040517f08c379a000000000000000000000000000000000000000000000000000000000815260040161042890610a83565b60405180910390fd5b6040518060a001604052808581526020018481526020018381526020018281526020016001151581525060008086815260200190815260200160002060008201518160000155602082015181600101908161048c9190610cca565b506040820151816002015560608201518160030190816104ac9190610cca565b5060808201518160040160006101000a81548160ff0219169083151502179055509050507ff30d7752a2712db61b6a69077c831c1aa4923cf1d2a6a8c6e5152aae9be883e2848484846040516105059493929190610785565b60405180910390a150505050565b6040518060a0016040528060015481526020018481526020018381526020018281526020016001151581525060008060015481526020019081526020016000206000820151816000015560208201518160010190816105729190610cca565b506040820151816002015560608201518160030190816105929190610cca565b5060808201518160040160006101000a81548160ff0219169083151502179055509050507f1be1384d0e46750bf3c73e3077bce8ea0c00b17ea89a797f35d39e43210f5fed6001548484846040516105ed9493929190610785565b60405180910390a16001600081548092919061060890610dcb565b9190505550505050565b50805461061e90610ad2565b6000825580601f10610630575061064f565b601f01602090049060005260206000209081019061064e9190610652565b5b50565b5b8082111561066b576000816000905550600101610653565b5090565b6000604051905090565b600080fd5b600080fd5b6000819050919050565b61069681610683565b81146106a157600080fd5b50565b6000813590506106b38161068d565b92915050565b6000602082840312156106cf576106ce610679565b5b60006106dd848285016106a4565b91505092915050565b6106ef81610683565b82525050565b600081519050919050565b600082825260208201905092915050565b60005b8381101561072f578082015181840152602081019050610714565b60008484015250505050565b6000601f19601f8301169050919050565b6000610757826106f5565b6107618185610700565b9350610771818560208601610711565b61077a8161073b565b840191505092915050565b600060808201905061079a60008301876106e6565b81810360208301526107ac818661074c565b90506107bb60408301856106e6565b81810360608301526107cd818461074c565b905095945050505050565b600080fd5b600080fd5b7f4e487b7100000000000000000000000000000000000000000000000000000000600052604160045260246000fd5b61081a8261073b565b810181811067ffffffffffffffff82111715610839576108386107e2565b5b80604052505050565b600061084c61066f565b90506108588282610811565b919050565b600067ffffffffffffffff821115610878576108776107e2565b5b6108818261073b565b9050602081019050919050565b82818337600083830152505050565b60006108b06108ab8461085d565b610842565b9050828152602081018484840111156108cc576108cb6107dd565b5b6108d784828561088e565b509392505050565b600082601f8301126108f4576108f36107d8565b5b813561090484826020860161089d565b91505092915050565b6000806000806080858703121561092757610926610679565b5b6000610935878288016106a4565b945050602085013567ffffffffffffffff8111156109565761095561067e565b5b610962878288016108df565b9350506040610973878288016106a4565b925050606085013567ffffffffffffffff8111156109945761099361067e565b5b6109a0878288016108df565b91505092959194509250565b6000806000606084860312156109c5576109c4610679565b5b600084013567ffffffffffffffff8111156109e3576109e261067e565b5b6109ef868287016108df565b9350506020610a00868287016106a4565b925050604084013567ffffffffffffffff811115610a2157610a2061067e565b5b610a2d868287016108df565b9150509250925092565b7f53747564656e74206e6f7420666f756e64000000000000000000000000000000600082015250565b6000610a6d601183610700565b9150610a7882610a37565b602082019050919050565b60006020820190508181036000830152610a9c81610a60565b9050919050565b7f4e487b7100000000000000000000000000000000000000000000000000000000600052602260045260246000fd5b60006002820490506001821680610aea57607f821691505b602082108103610afd57610afc610aa3565b5b50919050565b6000602082019050610b1860008301846106e6565b92915050565b60008190508160005260206000209050919050565b60006020601f8301049050919050565b600082821b905092915050565b600060088302610b807fffffffffffffffffffffffffffffffffffffffffffffffffffffffffffffffff82610b43565b610b8a8683610b43565b95508019841693508086168417925050509392505050565b6000819050919050565b6000610bc7610bc2610bbd84610683565b610ba2565b610683565b9050919050565b6000819050919050565b610be183610bac565b610bf5610bed82610bce565b848454610b50565b825550505050565b600090565b610c0a610bfd565b610c15818484610bd8565b505050565b5b81811015610c3957610c2e600082610c02565b600181019050610c1b565b5050565b601f821115610c7e57610c4f81610b1e565b610c5884610b33565b81016020851015610c67578190505b610c7b610c7385610b33565b830182610c1a565b50505b505050565b600082821c905092915050565b6000610ca160001984600802610c83565b1980831691505092915050565b6000610cba8383610c90565b9150826002028217905092915050565b610cd3826106f5565b67ffffffffffffffff811115610cec57610ceb6107e2565b5b610cf68254610ad2565b610d01828285610c3d565b600060209050601f831160018114610d345760008415610d22578287015190505b610d2c8582610cae565b865550610d94565b601f198416610d4286610b1e565b60005b82811015610d6a57848901518255600182019150602085019450602081019050610d45565b86831015610d875784890151610d83601f891682610c90565b8355505b6001600288020188555050505b505050505050565b7f4e487b7100000000000000000000000000000000000000000000000000000000600052601160045260246000fd5b6000610dd682610683565b91507fffffffffffffffffffffffffffffffffffffffffffffffffffffffffffffffff8203610e0857610e07610d9c565b5b60018201905091905056fea2646970667358221220ef0745753c71f580ec576427d95d5c9df168a2c3ad1019534e2684c54eb5e6c964736f6c634300081c0033",
  "linkReferences": {},
  "deployedLinkReferences": {}
}